{
  "_format": "hh-sol-artifact-1",
  "contractName": "NFTMarketplace",
  "sourceName": "contracts/NFTMarketplace.sol",
  "abi": [
    {
      "inputs": [],
      "stateMutability": "nonpayable",
      "type": "constructor"
    },
    {
      "inputs": [
        {
          "internalType": "address",
          "name": "sender",
          "type": "address"
        },
        {
          "internalType": "uint256",
          "name": "tokenId",
          "type": "uint256"
        },
        {
          "internalType": "address",
          "name": "owner",
          "type": "address"
        }
      ],
      "name": "ERC721IncorrectOwner",
      "type": "error"
    },
    {
      "inputs": [
        {
          "internalType": "address",
          "name": "operator",
          "type": "address"
        },
        {
          "internalType": "uint256",
          "name": "tokenId",
          "type": "uint256"
        }
      ],
      "name": "ERC721InsufficientApproval",
      "type": "error"
    },
    {
      "inputs": [
        {
          "internalType": "address",
          "name": "approver",
          "type": "address"
        }
      ],
      "name": "ERC721InvalidApprover",
      "type": "error"
    },
    {
      "inputs": [
        {
          "internalType": "address",
          "name": "operator",
          "type": "address"
        }
      ],
      "name": "ERC721InvalidOperator",
      "type": "error"
    },
    {
      "inputs": [
        {
          "internalType": "address",
          "name": "owner",
          "type": "address"
        }
      ],
      "name": "ERC721InvalidOwner",
      "type": "error"
    },
    {
      "inputs": [
        {
          "internalType": "address",
          "name": "receiver",
          "type": "address"
        }
      ],
      "name": "ERC721InvalidReceiver",
      "type": "error"
    },
    {
      "inputs": [
        {
          "internalType": "address",
          "name": "sender",
          "type": "address"
        }
      ],
      "name": "ERC721InvalidSender",
      "type": "error"
    },
    {
      "inputs": [
        {
          "internalType": "uint256",
          "name": "tokenId",
          "type": "uint256"
        }
      ],
      "name": "ERC721NonexistentToken",
      "type": "error"
    },
    {
      "inputs": [],
      "name": "ReentrancyGuardReentrantCall",
      "type": "error"
    },
    {
      "anonymous": false,
      "inputs": [
        {
          "indexed": true,
          "internalType": "address",
          "name": "owner",
          "type": "address"
        },
        {
          "indexed": true,
          "internalType": "address",
          "name": "approved",
          "type": "address"
        },
        {
          "indexed": true,
          "internalType": "uint256",
          "name": "tokenId",
          "type": "uint256"
        }
      ],
      "name": "Approval",
      "type": "event"
    },
    {
      "anonymous": false,
      "inputs": [
        {
          "indexed": true,
          "internalType": "address",
          "name": "owner",
          "type": "address"
        },
        {
          "indexed": true,
          "internalType": "address",
          "name": "operator",
          "type": "address"
        },
        {
          "indexed": false,
          "internalType": "bool",
          "name": "approved",
          "type": "bool"
        }
      ],
      "name": "ApprovalForAll",
      "type": "event"
    },
    {
      "anonymous": false,
      "inputs": [
        {
          "indexed": false,
          "internalType": "uint256",
          "name": "_fromTokenId",
          "type": "uint256"
        },
        {
          "indexed": false,
          "internalType": "uint256",
          "name": "_toTokenId",
          "type": "uint256"
        }
      ],
      "name": "BatchMetadataUpdate",
      "type": "event"
    },
    {
      "anonymous": false,
      "inputs": [
        {
          "indexed": true,
          "internalType": "uint256",
          "name": "tokenId",
          "type": "uint256"
        },
        {
          "indexed": false,
          "internalType": "address",
          "name": "seller",
          "type": "address"
        },
        {
          "indexed": false,
          "internalType": "address",
          "name": "owner",
          "type": "address"
        },
        {
          "indexed": false,
          "internalType": "uint256",
          "name": "price",
          "type": "uint256"
        },
        {
          "indexed": false,
          "internalType": "bool",
          "name": "sold",
          "type": "bool"
        }
      ],
      "name": "MarketItemCreated",
      "type": "event"
    },
    {
      "anonymous": false,
      "inputs": [
        {
          "indexed": false,
          "internalType": "uint256",
          "name": "_tokenId",
          "type": "uint256"
        }
      ],
      "name": "MetadataUpdate",
      "type": "event"
    },
    {
      "anonymous": false,
      "inputs": [
        {
          "indexed": true,
          "internalType": "address",
          "name": "from",
          "type": "address"
        },
        {
          "indexed": true,
          "internalType": "address",
          "name": "to",
          "type": "address"
        },
        {
          "indexed": true,
          "internalType": "uint256",
          "name": "tokenId",
          "type": "uint256"
        }
      ],
      "name": "Transfer",
      "type": "event"
    },
    {
      "inputs": [
        {
          "internalType": "address",
          "name": "to",
          "type": "address"
        },
        {
          "internalType": "uint256",
          "name": "tokenId",
          "type": "uint256"
        }
      ],
      "name": "approve",
      "outputs": [],
      "stateMutability": "nonpayable",
      "type": "function"
    },
    {
      "inputs": [
        {
          "internalType": "address",
          "name": "owner",
          "type": "address"
        }
      ],
      "name": "balanceOf",
      "outputs": [
        {
          "internalType": "uint256",
          "name": "",
          "type": "uint256"
        }
      ],
      "stateMutability": "view",
      "type": "function"
    },
    {
      "inputs": [
        {
          "internalType": "uint256",
          "name": "tokenId",
          "type": "uint256"
        }
      ],
      "name": "buyMarketItem",
      "outputs": [],
      "stateMutability": "payable",
      "type": "function"
    },
    {
      "inputs": [
        {
          "internalType": "string",
          "name": "tokenURI",
          "type": "string"
        },
        {
          "internalType": "uint256",
          "name": "price",
          "type": "uint256"
        }
      ],
      "name": "createToken",
      "outputs": [
        {
          "internalType": "uint256",
          "name": "",
          "type": "uint256"
        }
      ],
      "stateMutability": "payable",
      "type": "function"
    },
    {
      "inputs": [],
      "name": "fetchItemsListed",
      "outputs": [
        {
          "components": [
            {
              "internalType": "uint256",
              "name": "tokenId",
              "type": "uint256"
            },
            {
              "internalType": "address payable",
              "name": "seller",
              "type": "address"
            },
            {
              "internalType": "address payable",
              "name": "owner",
              "type": "address"
            },
            {
              "internalType": "uint256",
              "name": "price",
              "type": "uint256"
            },
            {
              "internalType": "bool",
              "name": "sold",
              "type": "bool"
            }
          ],
          "internalType": "struct NFTMarketplace.MarketItem[]",
          "name": "",
          "type": "tuple[]"
        }
      ],
      "stateMutability": "view",
      "type": "function"
    },
    {
      "inputs": [],
      "name": "fetchMarketItems",
      "outputs": [
        {
          "components": [
            {
              "internalType": "uint256",
              "name": "tokenId",
              "type": "uint256"
            },
            {
              "internalType": "address payable",
              "name": "seller",
              "type": "address"
            },
            {
              "internalType": "address payable",
              "name": "owner",
              "type": "address"
            },
            {
              "internalType": "uint256",
              "name": "price",
              "type": "uint256"
            },
            {
              "internalType": "bool",
              "name": "sold",
              "type": "bool"
            }
          ],
          "internalType": "struct NFTMarketplace.MarketItem[]",
          "name": "",
          "type": "tuple[]"
        }
      ],
      "stateMutability": "view",
      "type": "function"
    },
    {
      "inputs": [],
      "name": "fetchMyNFTs",
      "outputs": [
        {
          "components": [
            {
              "internalType": "uint256",
              "name": "tokenId",
              "type": "uint256"
            },
            {
              "internalType": "address payable",
              "name": "seller",
              "type": "address"
            },
            {
              "internalType": "address payable",
              "name": "owner",
              "type": "address"
            },
            {
              "internalType": "uint256",
              "name": "price",
              "type": "uint256"
            },
            {
              "internalType": "bool",
              "name": "sold",
              "type": "bool"
            }
          ],
          "internalType": "struct NFTMarketplace.MarketItem[]",
          "name": "",
          "type": "tuple[]"
        }
      ],
      "stateMutability": "view",
      "type": "function"
    },
    {
      "inputs": [
        {
          "internalType": "uint256",
          "name": "tokenId",
          "type": "uint256"
        }
      ],
      "name": "getApproved",
      "outputs": [
        {
          "internalType": "address",
          "name": "",
          "type": "address"
        }
      ],
      "stateMutability": "view",
      "type": "function"
    },
    {
      "inputs": [],
      "name": "getListingPrice",
      "outputs": [
        {
          "internalType": "uint256",
          "name": "",
          "type": "uint256"
        }
      ],
      "stateMutability": "view",
      "type": "function"
    },
    {
      "inputs": [
        {
          "internalType": "address",
          "name": "owner",
          "type": "address"
        },
        {
          "internalType": "address",
          "name": "operator",
          "type": "address"
        }
      ],
      "name": "isApprovedForAll",
      "outputs": [
        {
          "internalType": "bool",
          "name": "",
          "type": "bool"
        }
      ],
      "stateMutability": "view",
      "type": "function"
    },
    {
      "inputs": [],
      "name": "name",
      "outputs": [
        {
          "internalType": "string",
          "name": "",
          "type": "string"
        }
      ],
      "stateMutability": "view",
      "type": "function"
    },
    {
      "inputs": [
        {
          "internalType": "uint256",
          "name": "tokenId",
          "type": "uint256"
        }
      ],
      "name": "ownerOf",
      "outputs": [
        {
          "internalType": "address",
          "name": "",
          "type": "address"
        }
      ],
      "stateMutability": "view",
      "type": "function"
    },
    {
      "inputs": [
        {
          "internalType": "uint256",
          "name": "tokenId",
          "type": "uint256"
        },
        {
          "internalType": "uint256",
          "name": "price",
          "type": "uint256"
        }
      ],
      "name": "resellToken",
      "outputs": [],
      "stateMutability": "payable",
      "type": "function"
    },
    {
      "inputs": [
        {
          "internalType": "address",
          "name": "from",
          "type": "address"
        },
        {
          "internalType": "address",
          "name": "to",
          "type": "address"
        },
        {
          "internalType": "uint256",
          "name": "tokenId",
          "type": "uint256"
        }
      ],
      "name": "safeTransferFrom",
      "outputs": [],
      "stateMutability": "nonpayable",
      "type": "function"
    },
    {
      "inputs": [
        {
          "internalType": "address",
          "name": "from",
          "type": "address"
        },
        {
          "internalType": "address",
          "name": "to",
          "type": "address"
        },
        {
          "internalType": "uint256",
          "name": "tokenId",
          "type": "uint256"
        },
        {
          "internalType": "bytes",
          "name": "data",
          "type": "bytes"
        }
      ],
      "name": "safeTransferFrom",
      "outputs": [],
      "stateMutability": "nonpayable",
      "type": "function"
    },
    {
      "inputs": [
        {
          "internalType": "address",
          "name": "operator",
          "type": "address"
        },
        {
          "internalType": "bool",
          "name": "approved",
          "type": "bool"
        }
      ],
      "name": "setApprovalForAll",
      "outputs": [],
      "stateMutability": "nonpayable",
      "type": "function"
    },
    {
      "inputs": [
        {
          "internalType": "bytes4",
          "name": "interfaceId",
          "type": "bytes4"
        }
      ],
      "name": "supportsInterface",
      "outputs": [
        {
          "internalType": "bool",
          "name": "",
          "type": "bool"
        }
      ],
      "stateMutability": "view",
      "type": "function"
    },
    {
      "inputs": [],
      "name": "symbol",
      "outputs": [
        {
          "internalType": "string",
          "name": "",
          "type": "string"
        }
      ],
      "stateMutability": "view",
      "type": "function"
    },
    {
      "inputs": [
        {
          "internalType": "uint256",
          "name": "tokenId",
          "type": "uint256"
        }
      ],
      "name": "tokenURI",
      "outputs": [
        {
          "internalType": "string",
          "name": "",
          "type": "string"
        }
      ],
      "stateMutability": "view",
      "type": "function"
    },
    {
      "inputs": [
        {
          "internalType": "address",
          "name": "from",
          "type": "address"
        },
        {
          "internalType": "address",
          "name": "to",
          "type": "address"
        },
        {
          "internalType": "uint256",
          "name": "tokenId",
          "type": "uint256"
        }
      ],
      "name": "transferFrom",
      "outputs": [],
      "stateMutability": "nonpayable",
      "type": "function"
    },
    {
      "inputs": [
        {
          "internalType": "uint256",
          "name": "_listingPrice",
          "type": "uint256"
        }
      ],
      "name": "updateListingPrice",
      "outputs": [],
      "stateMutability": "payable",
      "type": "function"
    }
  ],
  "bytecode": "0x60806040526658d15e176280006009553480156200001b575f80fd5b506040518060400160405280601081526020016f4d657461766572736520546f6b656e7360801b815250604051806040016040528060048152602001631351551560e21b815250815f908162000072919062000178565b50600162000081828262000178565b50505060016200009d6200009a620000b660201b60201c565b90565b55600a80546001600160a01b0319163317905562000244565b7f9b779b17422d0df92223018b32b4d1fa46e071723d6817e2486d003becc55f0090565b634e487b7160e01b5f52604160045260245ffd5b600181811c908216806200010357607f821691505b6020821081036200012257634e487b7160e01b5f52602260045260245ffd5b50919050565b601f8211156200017357805f5260205f20601f840160051c810160208510156200014f5750805b601f840160051c820191505b8181101562000170575f81556001016200015b565b50505b505050565b81516001600160401b03811115620001945762000194620000da565b620001ac81620001a58454620000ee565b8462000128565b602080601f831160018114620001e2575f8415620001ca5750858301515b5f19600386901b1c1916600185901b1785556200023c565b5f85815260208120601f198616915b828110156200021257888601518255948401946001909101908401620001f1565b50858210156200023057878501515f19600388901b60f8161c191681555b505060018460011b0185555b505050505050565b611f9380620002525f395ff3fe608060405260043610610126575f3560e01c806345f8fa80116100a8578063a22cb4651161006d578063a22cb465146102f4578063ae677aa314610313578063b88d4fde14610326578063c87b56dd14610345578063e219fc7514610364578063e985e9c514610377575f80fd5b806345f8fa801461027b5780636352211e1461028f57806370a08231146102ae57806372b3b620146102cd57806395d89b41146102e0575f80fd5b806312e85585116100ee57806312e85585146101f8578063202e37401461021657806323b872dd1461022a578063351901c31461024957806342842e0e1461025c575f80fd5b806301ffc9a71461012a57806306fdde031461015e578063081812fc1461017f578063095ea7b3146101b65780630f08efe0146101d7575b5f80fd5b348015610135575f80fd5b50610149610144366004611963565b610396565b60405190151581526020015b60405180910390f35b348015610169575f80fd5b506101726103c0565b60405161015591906119cb565b34801561018a575f80fd5b5061019e6101993660046119dd565b61044f565b6040516001600160a01b039091168152602001610155565b3480156101c1575f80fd5b506101d56101d0366004611a0f565b610476565b005b3480156101e2575f80fd5b506101eb610485565b6040516101559190611a37565b348015610203575f80fd5b506009545b604051908152602001610155565b348015610221575f80fd5b506101eb6105f9565b348015610235575f80fd5b506101d5610244366004611ab2565b6107a4565b6101d56102573660046119dd565b610832565b348015610267575f80fd5b506101d5610276366004611ab2565b6109cb565b348015610286575f80fd5b506101eb6109ea565b34801561029a575f80fd5b5061019e6102a93660046119dd565b610b95565b3480156102b9575f80fd5b506102086102c8366004611aeb565b610b9f565b6102086102db366004611b8b565b610be4565b3480156102eb575f80fd5b50610172610c21565b3480156102ff575f80fd5b506101d561030e366004611be0565b610c30565b6101d56103213660046119dd565b610c3b565b348015610331575f80fd5b506101d5610340366004611c19565b610cb3565b348015610350575f80fd5b5061017261035f3660046119dd565b610ccb565b6101d5610372366004611c90565b610d4c565b348015610382575f80fd5b50610149610391366004611cb0565b610e4b565b5f6001600160e01b03198216632483248360e11b14806103ba57506103ba82610e78565b92915050565b60605f80546103ce90611ce1565b80601f01602080910402602001604051908101604052809291908181526020018280546103fa90611ce1565b80156104455780601f1061041c57610100808354040283529160200191610445565b820191905f5260205f20905b81548152906001019060200180831161042857829003601f168201915b5050505050905090565b5f61045982610ec7565b505f828152600460205260409020546001600160a01b03166103ba565b610481828233610eff565b5050565b600754600854606091905f9061049b9083611d2d565b90505f808267ffffffffffffffff8111156104b8576104b8611b04565b60405190808252806020026020018201604052801561050f57816020015b6040805160a0810182525f808252602080830182905292820181905260608201819052608082015282525f199092019101816104d65790505b5090505f5b848110156105f05730600b5f61052b846001611d40565b815260208101919091526040015f20600201546001600160a01b0316036105e8575f610558826001611d40565b5f818152600b6020908152604091829020825160a0810184528154815260018201546001600160a01b039081169382019390935260028201549092169282019290925260038201546060820152600482015460ff1615156080820152855192935090918590879081106105cd576105cd611d53565b60209081029190910101526105e3600186611d40565b945050505b600101610514565b50949350505050565b6007546060905f80805b838110156106515733600b5f61061a846001611d40565b815260208101919091526040015f20600201546001600160a01b03160361064957610646600184611d40565b92505b600101610603565b505f8267ffffffffffffffff81111561066c5761066c611b04565b6040519080825280602002602001820160405280156106c357816020015b6040805160a0810182525f808252602080830182905292820181905260608201819052608082015282525f1990920191018161068a5790505b5090505f5b848110156105f05733600b5f6106df846001611d40565b815260208101919091526040015f20600201546001600160a01b03160361079c575f61070c826001611d40565b5f818152600b6020908152604091829020825160a0810184528154815260018201546001600160a01b039081169382019390935260028201549092169282019290925260038201546060820152600482015460ff16151560808201528551929350909185908790811061078157610781611d53565b6020908102919091010152610797600186611d40565b945050505b6001016106c8565b6001600160a01b0382166107d257604051633250574960e11b81525f60048201526024015b60405180910390fd5b5f6107de838333610f0c565b9050836001600160a01b0316816001600160a01b03161461082c576040516364283d7b60e01b81526001600160a01b03808616600483015260248201849052821660448201526064016107c9565b50505050565b61083a610ffe565b5f818152600b6020526040902060038101546001909101546001600160a01b03163482146108d2576040805162461bcd60e51b81526020600482015260248101919091527f506c65617365207375626d6974207468652061736b696e67207072696365206960448201527f6e206f7264657220746f20636f6d706c6574652074686520707572636861736560648201526084016107c9565b5f838152600b602052604081206002810180546001600160a01b0319908116331790915560048201805460ff1916600190811790915590910180549091169055600880549161092083611d67565b919050555061093030338561102c565b600a546009546040516001600160a01b039092169181156108fc0291905f818181858888f19350505050158015610969573d5f803e3d5ffd5b506040516001600160a01b038216903480156108fc02915f818181858888f1935050505015801561099c573d5f803e3d5ffd5b5050506109c860017f9b779b17422d0df92223018b32b4d1fa46e071723d6817e2486d003becc55f0055565b50565b6109e583838360405180602001604052805f815250610cb3565b505050565b6007546060905f80805b83811015610a425733600b5f610a0b846001611d40565b815260208101919091526040015f20600101546001600160a01b031603610a3a57610a37600184611d40565b92505b6001016109f4565b505f8267ffffffffffffffff811115610a5d57610a5d611b04565b604051908082528060200260200182016040528015610ab457816020015b6040805160a0810182525f808252602080830182905292820181905260608201819052608082015282525f19909201910181610a7b5790505b5090505f5b848110156105f05733600b5f610ad0846001611d40565b815260208101919091526040015f20600101546001600160a01b031603610b8d575f610afd826001611d40565b5f818152600b6020908152604091829020825160a0810184528154815260018201546001600160a01b039081169382019390935260028201549092169282019290925260038201546060820152600482015460ff161515608082015285519293509091859087908110610b7257610b72611d53565b6020908102919091010152610b88600186611d40565b945050505b600101610ab9565b5f6103ba82610ec7565b5f6001600160a01b038216610bc9576040516322718ad960e21b81525f60048201526024016107c9565b506001600160a01b03165f9081526003602052604090205490565b600780545f9182610bf483611d67565b9091555050600754610c0633826110d9565b610c10818561113a565b610c1a8184611189565b9392505050565b6060600180546103ce90611ce1565b6104813383836112dc565b600a546001600160a01b03163314610cae5760405162461bcd60e51b815260206004820152603060248201527f4f6e6c79206d61726b6574706c616365206f776e65722063616e20757064617460448201526f32903634b9ba34b73390383934b1b29760811b60648201526084016107c9565b600955565b610cbe8484846107a4565b61082c33858585856113a3565b6060610cd682610ec7565b505f610cec60408051602081019091525f815290565b90505f610cf8846114cb565b905081515f03610d09579392505050565b805115610d3b578181604051602001610d23929190611d7f565b60405160208183030381529060405292505050919050565b610d448461156a565b949350505050565b5f828152600b60205260409020600201546001600160a01b03163314610dc75760405162461bcd60e51b815260206004820152602a60248201527f4f6e6c79206974656d206f776e65722063616e20706572666f726d20746869736044820152691037b832b930ba34b7b760b11b60648201526084016107c9565b6009543414610de85760405162461bcd60e51b81526004016107c990611dad565b5f828152600b6020526040812060048101805460ff19169055600381018390556001810180546001600160a01b0319908116331790915560029091018054909116301790556008805491610e3b83611df1565b919050555061048133308461102c565b6001600160a01b039182165f90815260056020908152604080832093909416825291909152205460ff1690565b5f6001600160e01b031982166380ac58cd60e01b1480610ea857506001600160e01b03198216635b5e139f60e01b145b806103ba57506301ffc9a760e01b6001600160e01b03198316146103ba565b5f818152600260205260408120546001600160a01b0316806103ba57604051637e27328960e01b8152600481018490526024016107c9565b6109e583838360016115da565b5f828152600260205260408120546001600160a01b0390811690831615610f3857610f388184866116de565b6001600160a01b03811615610f7257610f535f855f806115da565b6001600160a01b0381165f90815260036020526040902080545f190190555b6001600160a01b03851615610fa0576001600160a01b0385165f908152600360205260409020805460010190555b5f8481526002602052604080822080546001600160a01b0319166001600160a01b0389811691821790925591518793918516917fddf252ad1be2c89b69c2b068fc378daa952ba7f163c4a11628f55a4df523b3ef91a4949350505050565b611006611742565b60027f9b779b17422d0df92223018b32b4d1fa46e071723d6817e2486d003becc55f0055565b6001600160a01b03821661105557604051633250574960e11b81525f60048201526024016107c9565b5f61106183835f610f0c565b90506001600160a01b03811661108d57604051637e27328960e01b8152600481018390526024016107c9565b836001600160a01b0316816001600160a01b03161461082c576040516364283d7b60e01b81526001600160a01b03808616600483015260248201849052821660448201526064016107c9565b6001600160a01b03821661110257604051633250574960e11b81525f60048201526024016107c9565b5f61110e83835f610f0c565b90506001600160a01b038116156109e5576040516339e3563760e11b81525f60048201526024016107c9565b5f8281526006602052604090206111518282611e4a565b506040518281527ff8e1a15aba9398e019f0b49df1a4fde98ee17ae345cb5f6b5e2c27f5033e8ce79060200160405180910390a15050565b5f81116111d85760405162461bcd60e51b815260206004820152601c60248201527f5072696365206d757374206265206174206c656173742031207765690000000060448201526064016107c9565b60095434146111f95760405162461bcd60e51b81526004016107c990611dad565b6040805160a08101825283815233602080830182815230848601818152606086018881525f608088018181528b8252600b909652979097209551865591516001860180546001600160a01b03199081166001600160a01b0393841617909155925160028701805490941691161790915593516003840155516004909201805460ff191692151592909217909155611290918461102c565b604080513381523060208201529081018290525f606082015282907fb640004f1d14576d0c209e240cad0410e0d8c0c33a09375861fbadae2588a98d9060800160405180910390a25050565b6001600160a01b0383166113055760405163a9fbf51f60e01b81525f60048201526024016107c9565b6001600160a01b03821661133757604051630b61174360e31b81526001600160a01b03831660048201526024016107c9565b6001600160a01b038381165f81815260056020908152604080832094871680845294825291829020805460ff191686151590811790915591519182527f17307eab39ab6107e8899845ad3d59bd9653f200f220920489ca2b5937696c31910160405180910390a3505050565b6001600160a01b0383163b156114c457604051630a85bd0160e11b81526001600160a01b0384169063150b7a02906113e5908890889087908790600401611f06565b6020604051808303815f875af192505050801561141f575060408051601f3d908101601f1916820190925261141c91810190611f42565b60015b611486573d80801561144c576040519150601f19603f3d011682016040523d82523d5f602084013e611451565b606091505b5080515f0361147e57604051633250574960e11b81526001600160a01b03851660048201526024016107c9565b805160208201fd5b6001600160e01b03198116630a85bd0160e11b146114c257604051633250574960e11b81526001600160a01b03851660048201526024016107c9565b505b5050505050565b5f8181526006602052604090208054606091906114e790611ce1565b80601f016020809104026020016040519081016040528092919081815260200182805461151390611ce1565b801561155e5780601f106115355761010080835404028352916020019161155e565b820191905f5260205f20905b81548152906001019060200180831161154157829003601f168201915b50505050509050919050565b606061157582610ec7565b505f61158b60408051602081019091525f815290565b90505f8151116115a95760405180602001604052805f815250610c1a565b806115b384611786565b6040516020016115c4929190611d7f565b6040516020818303038152906040529392505050565b80806115ee57506001600160a01b03821615155b156116af575f6115fd84610ec7565b90506001600160a01b038316158015906116295750826001600160a01b0316816001600160a01b031614155b801561163c575061163a8184610e4b565b155b156116655760405163a9fbf51f60e01b81526001600160a01b03841660048201526024016107c9565b81156116ad5783856001600160a01b0316826001600160a01b03167f8c5be1e5ebec7d5bd14f71427d1e84f3dd0314c0f7b2291e5b200ac8c7c3b92560405160405180910390a45b505b50505f90815260046020526040902080546001600160a01b0319166001600160a01b0392909216919091179055565b6116e9838383611816565b6109e5576001600160a01b03831661171757604051637e27328960e01b8152600481018290526024016107c9565b60405163177e802f60e01b81526001600160a01b0383166004820152602481018290526044016107c9565b7f9b779b17422d0df92223018b32b4d1fa46e071723d6817e2486d003becc55f005460020361178457604051633ee5aeb560e01b815260040160405180910390fd5b565b60605f61179283611877565b60010190505f8167ffffffffffffffff8111156117b1576117b1611b04565b6040519080825280601f01601f1916602001820160405280156117db576020820181803683370190505b5090508181016020015b5f19016f181899199a1a9b1b9c1cb0b131b232b360811b600a86061a8153600a85049450846117e557509392505050565b5f6001600160a01b03831615801590610d445750826001600160a01b0316846001600160a01b0316148061184f575061184f8484610e4b565b80610d445750505f908152600460205260409020546001600160a01b03908116911614919050565b5f8072184f03e93ff9f4daa797ed6e38ed64bf6a1f0160401b83106118b55772184f03e93ff9f4daa797ed6e38ed64bf6a1f0160401b830492506040015b6d04ee2d6d415b85acef810000000083106118e1576d04ee2d6d415b85acef8100000000830492506020015b662386f26fc1000083106118ff57662386f26fc10000830492506010015b6305f5e1008310611917576305f5e100830492506008015b612710831061192b57612710830492506004015b6064831061193d576064830492506002015b600a83106103ba5760010192915050565b6001600160e01b0319811681146109c8575f80fd5b5f60208284031215611973575f80fd5b8135610c1a8161194e565b5f5b83811015611998578181015183820152602001611980565b50505f910152565b5f81518084526119b781602086016020860161197e565b601f01601f19169290920160200192915050565b602081525f610c1a60208301846119a0565b5f602082840312156119ed575f80fd5b5035919050565b80356001600160a01b0381168114611a0a575f80fd5b919050565b5f8060408385031215611a20575f80fd5b611a29836119f4565b946020939093013593505050565b602080825282518282018190525f919060409081850190868401855b82811015611aa557815180518552868101516001600160a01b03908116888701528682015116868601526060808201519086015260809081015115159085015260a09093019290850190600101611a53565b5091979650505050505050565b5f805f60608486031215611ac4575f80fd5b611acd846119f4565b9250611adb602085016119f4565b9150604084013590509250925092565b5f60208284031215611afb575f80fd5b610c1a826119f4565b634e487b7160e01b5f52604160045260245ffd5b5f67ffffffffffffffff80841115611b3257611b32611b04565b604051601f8501601f19908116603f01168101908282118183101715611b5a57611b5a611b04565b81604052809350858152868686011115611b72575f80fd5b858560208301375f602087830101525050509392505050565b5f8060408385031215611b9c575f80fd5b823567ffffffffffffffff811115611bb2575f80fd5b8301601f81018513611bc2575f80fd5b611bd185823560208401611b18565b95602094909401359450505050565b5f8060408385031215611bf1575f80fd5b611bfa836119f4565b915060208301358015158114611c0e575f80fd5b809150509250929050565b5f805f8060808587031215611c2c575f80fd5b611c35856119f4565b9350611c43602086016119f4565b925060408501359150606085013567ffffffffffffffff811115611c65575f80fd5b8501601f81018713611c75575f80fd5b611c8487823560208401611b18565b91505092959194509250565b5f8060408385031215611ca1575f80fd5b50508035926020909101359150565b5f8060408385031215611cc1575f80fd5b611cca836119f4565b9150611cd8602084016119f4565b90509250929050565b600181811c90821680611cf557607f821691505b602082108103611d1357634e487b7160e01b5f52602260045260245ffd5b50919050565b634e487b7160e01b5f52601160045260245ffd5b818103818111156103ba576103ba611d19565b808201808211156103ba576103ba611d19565b634e487b7160e01b5f52603260045260245ffd5b5f60018201611d7857611d78611d19565b5060010190565b5f8351611d9081846020880161197e565b835190830190611da481836020880161197e565b01949350505050565b60208082526024908201527f5072696365206d75737420626520657175616c20746f206c697374696e6720706040820152637269636560e01b606082015260800190565b5f81611dff57611dff611d19565b505f190190565b601f8211156109e557805f5260205f20601f840160051c81016020851015611e2b5750805b601f840160051c820191505b818110156114c4575f8155600101611e37565b815167ffffffffffffffff811115611e6457611e64611b04565b611e7881611e728454611ce1565b84611e06565b602080601f831160018114611eab575f8415611e945750858301515b5f19600386901b1c1916600185901b1785556114c2565b5f85815260208120601f198616915b82811015611ed957888601518255948401946001909101908401611eba565b5085821015611ef657878501515f19600388901b60f8161c191681555b5050505050600190811b01905550565b6001600160a01b03858116825284166020820152604081018390526080606082018190525f90611f38908301846119a0565b9695505050505050565b5f60208284031215611f52575f80fd5b8151610c1a8161194e56fea2646970667358221220916fe1b855b85b722c242a3ea05934e3da53dc88d3ceb2ce90810ca7f77bca0464736f6c63430008180033",
  "linkReferences": {},
  "deployedLinkReferences": {}
}